{
  "_format": "hh-sol-artifact-1",
  "contractName": "Governance",
  "sourceName": "contracts/Governance.sol",
  "abi": [
    {
      "inputs": [],
      "stateMutability": "nonpayable",
      "type": "constructor"
    },
    {
      "anonymous": false,
      "inputs": [
        {
          "indexed": false,
          "internalType": "address",
          "name": "account",
          "type": "address"
        },
        {
          "indexed": false,
          "internalType": "bytes32",
          "name": "role",
          "type": "bytes32"
        }
      ],
      "name": "roleGranted",
      "type": "event"
    },
    {
      "anonymous": false,
      "inputs": [
        {
          "indexed": false,
          "internalType": "address",
          "name": "account",
          "type": "address"
        },
        {
          "indexed": false,
          "internalType": "uint256",
          "name": "candidateIndex",
          "type": "uint256"
        }
      ],
      "name": "shareholderVoted",
      "type": "event"
    },
    {
      "inputs": [],
      "name": "CHAIRMAN_ROLE",
      "outputs": [
        {
          "internalType": "bytes32",
          "name": "",
          "type": "bytes32"
        }
      ],
      "stateMutability": "view",
      "type": "function"
    },
    {
      "inputs": [],
      "name": "STUDENT_ROLE",
      "outputs": [
        {
          "internalType": "bytes32",
          "name": "",
          "type": "bytes32"
        }
      ],
      "stateMutability": "view",
      "type": "function"
    },
    {
      "inputs": [],
      "name": "TEACHER_ROLE",
      "outputs": [
        {
          "internalType": "bytes32",
          "name": "",
          "type": "bytes32"
        }
      ],
      "stateMutability": "view",
      "type": "function"
    },
    {
      "inputs": [
        {
          "internalType": "string[]",
          "name": "names",
          "type": "string[]"
        }
      ],
      "name": "addCandidates",
      "outputs": [],
      "stateMutability": "nonpayable",
      "type": "function"
    },
    {
      "inputs": [
        {
          "internalType": "bool",
          "name": "status",
          "type": "bool"
        }
      ],
      "name": "changeResultStatus",
      "outputs": [],
      "stateMutability": "nonpayable",
      "type": "function"
    },
    {
      "inputs": [
        {
          "internalType": "bool",
          "name": "status",
          "type": "bool"
        }
      ],
      "name": "changeVotingAllowed",
      "outputs": [],
      "stateMutability": "nonpayable",
      "type": "function"
    },
    {
      "inputs": [
        {
          "internalType": "address",
          "name": "account",
          "type": "address"
        }
      ],
      "name": "getRole",
      "outputs": [
        {
          "internalType": "bytes32",
          "name": "",
          "type": "bytes32"
        }
      ],
      "stateMutability": "view",
      "type": "function"
    },
    {
      "inputs": [
        {
          "internalType": "bytes32",
          "name": "role",
          "type": "bytes32"
        },
        {
          "internalType": "address",
          "name": "account",
          "type": "address"
        }
      ],
      "name": "grantRole",
      "outputs": [
        {
          "internalType": "bool",
          "name": "",
          "type": "bool"
        }
      ],
      "stateMutability": "nonpayable",
      "type": "function"
    },
    {
      "inputs": [],
      "name": "resultPublic",
      "outputs": [
        {
          "internalType": "bool",
          "name": "",
          "type": "bool"
        }
      ],
      "stateMutability": "view",
      "type": "function"
    },
    {
      "inputs": [
        {
          "internalType": "uint256",
          "name": "candidateIndex",
          "type": "uint256"
        }
      ],
      "name": "vote",
      "outputs": [
        {
          "internalType": "bool",
          "name": "",
          "type": "bool"
        }
      ],
      "stateMutability": "nonpayable",
      "type": "function"
    },
    {
      "inputs": [],
      "name": "votingAllowed",
      "outputs": [
        {
          "internalType": "bool",
          "name": "",
          "type": "bool"
        }
      ],
      "stateMutability": "view",
      "type": "function"
    },
    {
      "inputs": [],
      "name": "votingResult",
      "outputs": [
        {
          "components": [
            {
              "internalType": "string",
              "name": "name",
              "type": "string"
            },
            {
              "internalType": "uint256",
              "name": "voteCount",
              "type": "uint256"
            }
          ],
          "internalType": "struct Governance.candidate[]",
          "name": "",
          "type": "tuple[]"
        }
      ],
      "stateMutability": "view",
      "type": "function"
    }
  ],
  "bytecode": "0x608060405260016000806101000a81548160ff02191690831515021790555060008060016101000a81548160ff02191690831515021790555034801561004457600080fd5b507fdc1958ce1178d6eb32ccc146dcea8933f1978155832913ec88fa509962e1b413600360003373ffffffffffffffffffffffffffffffffffffffff1673ffffffffffffffffffffffffffffffffffffffff168152602001908152602001600020819055506002339080600181540180825580915050600190039060005260206000200160009091909190916101000a81548173ffffffffffffffffffffffffffffffffffffffff021916908373ffffffffffffffffffffffffffffffffffffffff160217905550611d678061011b6000396000f3fe608060405234801561001057600080fd5b50600436106100b45760003560e01c806386e5c15a1161007157806386e5c15a146101a1578063a097dc4b146101bf578063a999e562146101dd578063cfb62dee146101f9578063f7be43fb14610217578063f81f2b4514610235576100b4565b80630121b93f146100b957806317e760bb146100e957806327f3eef8146101075780632f2ff15d1461012557806344276733146101555780634a1d63c814610185575b600080fd5b6100d360048036038101906100ce919061121c565b610251565b6040516100e091906115a7565b60405180910390f35b6100f161052b565b6040516100fe91906115a7565b60405180910390f35b61010f61053c565b60405161011c91906115a7565b60405180910390f35b61013f600480360381019061013a91906111e0565b61054f565b60405161014c91906115a7565b60405180910390f35b61016f600480360381019061016a9190611149565b610948565b60405161017c91906115c2565b60405180910390f35b61019f600480360381019061019a91906111b7565b610991565b005b6101a9610ab8565b6040516101b691906115c2565b60405180910390f35b6101c7610adc565b6040516101d491906115c2565b60405180910390f35b6101f760048036038101906101f29190611172565b610b00565b005b610201610d6e565b60405161020e9190611585565b60405180910390f35b61021f610f27565b60405161022c91906115c2565b60405180910390f35b61024f600480360381019061024a91906111b7565b610f4b565b005b60008060001b600360003373ffffffffffffffffffffffffffffffffffffffff1673ffffffffffffffffffffffffffffffffffffffff1681526020019081526020016000205414156102d8576040517f08c379a00000000000000000000000000000000000000000000000000000000081526004016102cf9061167d565b60405180910390fd5b600460003373ffffffffffffffffffffffffffffffffffffffff1673ffffffffffffffffffffffffffffffffffffffff16815260200190815260200160002060000160009054906101000a900460ff1615610368576040517f08c379a000000000000000000000000000000000000000000000000000000000815260040161035f9061169d565b60405180910390fd5b6001151560008054906101000a900460ff161515146103bc576040517f08c379a00000000000000000000000000000000000000000000000000000000081526004016103b3906115dd565b60405180910390fd5b8160018054905011610403576040517f08c379a00000000000000000000000000000000000000000000000000000000081526004016103fa906116bd565b60405180910390fd5b600180838154811061043e577f4e487b7100000000000000000000000000000000000000000000000000000000600052603260045260246000fd5b9060005260206000209060020201600101600082825461045e919061181a565b92505081905550604051806040016040528060011515815260200183815250600460003373ffffffffffffffffffffffffffffffffffffffff1673ffffffffffffffffffffffffffffffffffffffff16815260200190815260200160002060008201518160000160006101000a81548160ff021916908315150217905550602082015181600101559050507fa66baa52d4be244ac3e48ec82a60aafef36596e691f8061f25805cb2a76c56b5338360405161051a92919061155c565b60405180910390a160019050919050565b60008054906101000a900460ff1681565b600060019054906101000a900460ff1681565b6000827f36a5c4aaacb6b388bbd448bf11096b7dafc5652bcc9046084fd0e95b1fb0b2cc81148061059f57507fd16e204b8a42a15ab0ea6bb8ec1ecdfbe69f38074fc865323af19efe7d9573d981145b806105c957507fdc1958ce1178d6eb32ccc146dcea8933f1978155832913ec88fa509962e1b41381145b610608576040517f08c379a00000000000000000000000000000000000000000000000000000000081526004016105ff906115fd565b60405180910390fd5b827fdc1958ce1178d6eb32ccc146dcea8933f1978155832913ec88fa509962e1b413600360008373ffffffffffffffffffffffffffffffffffffffff1673ffffffffffffffffffffffffffffffffffffffff16815260200190815260200160002054141580156106d757507f36a5c4aaacb6b388bbd448bf11096b7dafc5652bcc9046084fd0e95b1fb0b2cc600360008373ffffffffffffffffffffffffffffffffffffffff1673ffffffffffffffffffffffffffffffffffffffff1681526020019081526020016000205414155b801561074257507fd16e204b8a42a15ab0ea6bb8ec1ecdfbe69f38074fc865323af19efe7d9573d9600360008373ffffffffffffffffffffffffffffffffffffffff1673ffffffffffffffffffffffffffffffffffffffff1681526020019081526020016000205414155b610781576040517f08c379a00000000000000000000000000000000000000000000000000000000081526004016107789061163d565b60405180910390fd5b600073ffffffffffffffffffffffffffffffffffffffff168473ffffffffffffffffffffffffffffffffffffffff1614156107bb57600080fd5b7fdc1958ce1178d6eb32ccc146dcea8933f1978155832913ec88fa509962e1b413600360003373ffffffffffffffffffffffffffffffffffffffff1673ffffffffffffffffffffffffffffffffffffffff168152602001908152602001600020541461085c576040517f08c379a0000000000000000000000000000000000000000000000000000000008152600401610853906116fd565b60405180910390fd5b84600360008673ffffffffffffffffffffffffffffffffffffffff1673ffffffffffffffffffffffffffffffffffffffff168152602001908152602001600020819055506002849080600181540180825580915050600190039060005260206000200160009091909190916101000a81548173ffffffffffffffffffffffffffffffffffffffff021916908373ffffffffffffffffffffffffffffffffffffffff1602179055507fca9e25debdcab331dd07d4db1b330c6bf0216cb3acda291fde9d9b85644f20258486604051610934929190611533565b60405180910390a160019250505092915050565b6000600360008373ffffffffffffffffffffffffffffffffffffffff1673ffffffffffffffffffffffffffffffffffffffff168152602001908152602001600020549050919050565b7fdc1958ce1178d6eb32ccc146dcea8933f1978155832913ec88fa509962e1b413600360003373ffffffffffffffffffffffffffffffffffffffff1673ffffffffffffffffffffffffffffffffffffffff168152602001908152602001600020541480610a5c57507fd16e204b8a42a15ab0ea6bb8ec1ecdfbe69f38074fc865323af19efe7d9573d9600360003373ffffffffffffffffffffffffffffffffffffffff1673ffffffffffffffffffffffffffffffffffffffff16815260200190815260200160002054145b610a9b576040517f08c379a0000000000000000000000000000000000000000000000000000000008152600401610a92906116dd565b60405180910390fd5b80600060016101000a81548160ff02191690831515021790555050565b7fd16e204b8a42a15ab0ea6bb8ec1ecdfbe69f38074fc865323af19efe7d9573d981565b7fdc1958ce1178d6eb32ccc146dcea8933f1978155832913ec88fa509962e1b41381565b7fdc1958ce1178d6eb32ccc146dcea8933f1978155832913ec88fa509962e1b413600360003373ffffffffffffffffffffffffffffffffffffffff1673ffffffffffffffffffffffffffffffffffffffff168152602001908152602001600020541480610bcb57507fd16e204b8a42a15ab0ea6bb8ec1ecdfbe69f38074fc865323af19efe7d9573d9600360003373ffffffffffffffffffffffffffffffffffffffff1673ffffffffffffffffffffffffffffffffffffffff16815260200190815260200160002054145b610c0a576040517f08c379a0000000000000000000000000000000000000000000000000000000008152600401610c019061171d565b60405180910390fd5b6032828290501115610c51576040517f08c379a0000000000000000000000000000000000000000000000000000000008152600401610c489061161d565b60405180910390fd5b60005b82829050811015610d695760016040518060400160405280858585818110610ca5577f4e487b7100000000000000000000000000000000000000000000000000000000600052603260045260246000fd5b9050602002810190610cb7919061175d565b8080601f016020809104026020016040519081016040528093929190818152602001838380828437600081840152601f19601f820116905080830192505050505050508152602001600081525090806001815401808255809150506001900390600052602060002090600202016000909190919091506000820151816000019080519060200190610d49929190611008565b506020820151816001015550508080610d6190611927565b915050610c54565b505050565b60607f36a5c4aaacb6b388bbd448bf11096b7dafc5652bcc9046084fd0e95b1fb0b2cc600360003373ffffffffffffffffffffffffffffffffffffffff1673ffffffffffffffffffffffffffffffffffffffff168152602001908152602001600020541415610e2e5760011515600060019054906101000a900460ff16151514610e2d576040517f08c379a0000000000000000000000000000000000000000000000000000000008152600401610e249061165d565b60405180910390fd5b5b6001805480602002602001604051908101604052809291908181526020016000905b82821015610f1e5783829060005260206000209060020201604051806040016040529081600082018054610e83906118f5565b80601f0160208091040260200160405190810160405280929190818152602001828054610eaf906118f5565b8015610efc5780601f10610ed157610100808354040283529160200191610efc565b820191906000526020600020905b815481529060010190602001808311610edf57829003601f168201915b5050505050815260200160018201548152505081526020019060010190610e50565b50505050905090565b7f36a5c4aaacb6b388bbd448bf11096b7dafc5652bcc9046084fd0e95b1fb0b2cc81565b7fdc1958ce1178d6eb32ccc146dcea8933f1978155832913ec88fa509962e1b413600360003373ffffffffffffffffffffffffffffffffffffffff1673ffffffffffffffffffffffffffffffffffffffff1681526020019081526020016000205414610fec576040517f08c379a0000000000000000000000000000000000000000000000000000000008152600401610fe39061173d565b60405180910390fd5b806000806101000a81548160ff02191690831515021790555050565b828054611014906118f5565b90600052602060002090601f016020900481019282611036576000855561107d565b82601f1061104f57805160ff191683800117855561107d565b8280016001018555821561107d579182015b8281111561107c578251825591602001919060010190611061565b5b50905061108a919061108e565b5090565b5b808211156110a757600081600090555060010161108f565b5090565b6000813590506110ba81611cd5565b92915050565b60008083601f8401126110d257600080fd5b8235905067ffffffffffffffff8111156110eb57600080fd5b60208301915083602082028301111561110357600080fd5b9250929050565b60008135905061111981611cec565b92915050565b60008135905061112e81611d03565b92915050565b60008135905061114381611d1a565b92915050565b60006020828403121561115b57600080fd5b6000611169848285016110ab565b91505092915050565b6000806020838503121561118557600080fd5b600083013567ffffffffffffffff81111561119f57600080fd5b6111ab858286016110c0565b92509250509250929050565b6000602082840312156111c957600080fd5b60006111d78482850161110a565b91505092915050565b600080604083850312156111f357600080fd5b60006112018582860161111f565b9250506020611212858286016110ab565b9150509250929050565b60006020828403121561122e57600080fd5b600061123c84828501611134565b91505092915050565b600061125183836114d8565b905092915050565b61126281611870565b82525050565b6000611273826117c4565b61127d81856117e7565b93508360208202850161128f856117b4565b8060005b858110156112cb57848403895281516112ac8582611245565b94506112b7836117da565b925060208a01995050600181019050611293565b50829750879550505050505092915050565b6112e681611882565b82525050565b6112f58161188e565b82525050565b6000611306826117cf565b61131081856117f8565b93506113208185602086016118c2565b611329816119ce565b840191505092915050565b6000611341601283611809565b915061134c826119df565b602082019050919050565b6000611364601b83611809565b915061136f82611a08565b602082019050919050565b6000611387603583611809565b915061139282611a31565b604082019050919050565b60006113aa602883611809565b91506113b582611a80565b604082019050919050565b60006113cd601583611809565b91506113d882611acf565b602082019050919050565b60006113f0601b83611809565b91506113fb82611af8565b602082019050919050565b6000611413601d83611809565b915061141e82611b21565b602082019050919050565b6000611436601c83611809565b915061144182611b4a565b602082019050919050565b6000611459604483611809565b915061146482611b73565b606082019050919050565b600061147c603083611809565b915061148782611be8565b604082019050919050565b600061149f603e83611809565b91506114aa82611c37565b604082019050919050565b60006114c2603983611809565b91506114cd82611c86565b604082019050919050565b600060408301600083015184820360008601526114f582826112fb565b915050602083015161150a6020860182611515565b508091505092915050565b61151e816118b8565b82525050565b61152d816118b8565b82525050565b60006040820190506115486000830185611259565b61155560208301846112ec565b9392505050565b60006040820190506115716000830185611259565b61157e6020830184611524565b9392505050565b6000602082019050818103600083015261159f8184611268565b905092915050565b60006020820190506115bc60008301846112dd565b92915050565b60006020820190506115d760008301846112ec565b92915050565b600060208201905081810360008301526115f681611334565b9050919050565b6000602082019050818103600083015261161681611357565b9050919050565b600060208201905081810360008301526116368161137a565b9050919050565b600060208201905081810360008301526116568161139d565b9050919050565b60006020820190508181036000830152611676816113c0565b9050919050565b60006020820190508181036000830152611696816113e3565b9050919050565b600060208201905081810360008301526116b681611406565b9050919050565b600060208201905081810360008301526116d681611429565b9050919050565b600060208201905081810360008301526116f68161144c565b9050919050565b600060208201905081810360008301526117168161146f565b9050919050565b6000602082019050818103600083015261173681611492565b9050919050565b60006020820190508181036000830152611756816114b5565b9050919050565b6000808335600160200384360303811261177657600080fd5b80840192508235915067ffffffffffffffff82111561179457600080fd5b6020830192506001820236038313156117ac57600080fd5b509250929050565b6000819050602082019050919050565b600081519050919050565b600081519050919050565b6000602082019050919050565b600082825260208201905092915050565b600082825260208201905092915050565b600082825260208201905092915050565b6000611825826118b8565b9150611830836118b8565b9250827fffffffffffffffffffffffffffffffffffffffffffffffffffffffffffffffff0382111561186557611864611970565b5b828201905092915050565b600061187b82611898565b9050919050565b60008115159050919050565b6000819050919050565b600073ffffffffffffffffffffffffffffffffffffffff82169050919050565b6000819050919050565b60005b838110156118e05780820151818401526020810190506118c5565b838111156118ef576000848401525b50505050565b6000600282049050600182168061190d57607f821691505b602082108114156119215761192061199f565b5b50919050565b6000611932826118b8565b91507fffffffffffffffffffffffffffffffffffffffffffffffffffffffffffffffff82141561196557611964611970565b5b600182019050919050565b7f4e487b7100000000000000000000000000000000000000000000000000000000600052601160045260246000fd5b7f4e487b7100000000000000000000000000000000000000000000000000000000600052602260045260246000fd5b6000601f19601f8301169050919050565b7f566f74696e67206e6f7420616c6c6f7765640000000000000000000000000000600082015250565b7f43616e6e6f742061737369676e20696e76616c696420726f6c65210000000000600082015250565b7f4e756d626572206f662063616e6469646174657320697320677265617465722060008201527f7468616e20616d6f756e7420616c6c6f7761626c650000000000000000000000602082015250565b7f4163636f756e742068617320616c7265616479206265656e2061737369676e6560008201527f64206120726f6c65000000000000000000000000000000000000000000000000602082015250565b7f526573756c74206e6f7420796574207075626c69630000000000000000000000600082015250565b7f566f746572206d7573742062652061207368617265686f6c6465720000000000600082015250565b7f5368617265686f6c6465722068617320616c726561647920766f746564000000600082015250565b7f43616e64696461746520696e646578206f7574206f6620626f756e6400000000600082015250565b7f4f6e6c79206163636f756e747320776974682043484149524d414e206f72205460008201527f45414348455220524f4c452063616e206368616e676520726573756c7420737460208201527f6174757300000000000000000000000000000000000000000000000000000000604082015250565b7f4f6e6c79206163636f756e747320776974682043484149524d414e20524f4c4560008201527f2063616e206772616e7420726f6c657300000000000000000000000000000000602082015250565b7f4f6e6c79206163636f756e747320776974682043484149524d414e206f72205460008201527f45414348455220524f4c452063616e206164642063616e646964617465730000602082015250565b7f4f6e6c79206163636f756e7420776974682043484149524d414e20524f4c452060008201527f63616e206368616e676520766f74696e6720616c6c6f77656400000000000000602082015250565b611cde81611870565b8114611ce957600080fd5b50565b611cf581611882565b8114611d0057600080fd5b50565b611d0c8161188e565b8114611d1757600080fd5b50565b611d23816118b8565b8114611d2e57600080fd5b5056fea26469706673582212204abb501730a444575eaed18d006862fc2ba2e730342ceab39861b2b6038d379f64736f6c63430008040033",
  "linkReferences": {},
  "deployedLinkReferences": {}
}